:020000020000FC
:2000000034004000140840083A68000800000000000000000000000000000000000000005E
:200020003402C0061400D0DE3402800614AFA0D63402800014B680103402C0001421C218F8
:200040002603C010150000100401801036FDFF10004400008053000006FF3F0004F7FFDE78
:20006000150200DC1508C0DF150740DD150600DD1505C0DC150480DC150340DC0419000420
:200080003402000104000021C4FF3F84405600001EFB3F8034020001041300213402000566
:2000A00040B400003A88230004BB00A5340041050440800484000F89448C400140CB000089
:2000C000170080A07A9206883402C004170A801004BBC09C3AC88718048000113A88471D2D
:2000E000030080113A888B1844008010050080291EFB3F114400408C1EEEBF8CB4E03F05DD
:200100008400510404002FA534004105840891043A880988448C400140CB000017008098F5
:200120007A920688170A80103A88071D3AC88718048000113A88471D030080113A888B1839
:2001400044008010050080291EFB3F114400408C1EEFBF8C34020001041E002180710000E1
:200160003A88230034008104C403C0043A88858C030040113402000104250021CC3F40293A
:2001800040560000CC0380881E03C0143402000104260021807100004400408C04408000B6
:2001A0001EF2BF88340200010427002180710000B40180008400C000047C801034020001B4
:2001C0000D00C010042A0021B4014004F403800480710000047A408CC48F90940B008088BA
:2001E000CCFFBF101E0B0010150100D8170180D816048090170180D844008010150180D8F2
:2002000006FA3F0034020001043500218071000006F23F00B40180000B7A401434020001A1
:2002200004360021CCFFFF8C3A880B98CC03808C405600002663009034020001043B002187
:200240003A880B9040560000C40080002E0C8014040180001E44809034020001044A0021FC
:20026000807100003400810134020002040440313400FF0104750042048040020619000052
:200280003402000104400021807100003400810134020002040440313400FF01047500427B
:2002A000044040023A8885813A8849813AC807143A88C7193A88071A0300C0180500C01012
:2002C0000440C01005000018440080101EF73F11040400841EF37F82340200010446002174
:2002E000062000003A8885813A8849813AC807143A88C7193A88071A0300C0180500C01032
:200300000480C01005000018440080101EF73F11040400841EF37F823402000104460021F3
:2003200080710000348081003480BE0134024001348001010400BC1004008431046540299C
:2003400004103C213A8887113A8847190300C01844008010C5FFFF101EFA3F11340200018F
:20036000045000218071000084008000B4000001B4014001150080D80419C000C4A7212171
:2003800004784029170080D8160D8018150100D8170180D816048020170180D844008010F2
:2003A000150180D806FA3F00170080D80D008028170080D844008010150080D806F13F0086
:2003C000061E00000C3C4089260D0028340200010456002140560000340081000440C0107C
:2003E00005000010440080101EFDFF10B40180000419C000047880100D00C010060F0000DA
:20040000B40100040CC0438904780084041980042605002834020001045B0021405600004A
:200420000D0080840605000034020001046000213A880B98405600000D00808406FF3F0094
:2004400004FFFFDE34020001340040011500C0DF0482002104324C291E0640213400000150
:200460003400400104F80F2104F84F291E144021060D00003402C00004B6C01804FFBF0077
:200480003AC807193A7086183A88050026F3FF103A884F111700C0393A880D11040180105C
:2004A0001500C03106F93F0034020001340040010400002104B04B291E124021060D00005B
:2004C0003400C00004F8CF1804FFBF003AC807193A7086183A88050026F3FF103A884F1108
:2004E0001700C0393A880D11040180101500C03106F93F00C0A102001700C0DF0401C0DE77
:2005000041B102003402C0000482C01804FFBF003AC807193A7086183A88050026F5FF1076
:200520003A884F111700C0393A880D11040180101500C03106F93F0004FFFFDE3A88090025
:200540001500C0DF0075000000770000170920D1170860D11707A0D11700C0DF0401C0DEB2
:20056000C105000004F2FFDE150AC0DF150900DF1508C0DD150780DD150640DD150500DDC5
:200580001504C0DC150380DC150240DC150100DC150B40D9150C80D9150DC0D9440900044E
:2005A0003A880520040B40DDC4188004041EC004C41C00050700001126390020260200241A
:2005C00044004014061100008400401447008010263300101E0200143A880980060B0000C4
:2005E0001E058014170000A9040180AD3A882BB0006D0000062800001E1FC0141700C0AD85
:20060000040140AD1E0300B8040C0001006D00000621000004078005C403C0003A98841DE0
:200620003A70C4151E02001004FFBFB506FB3F00C40300074402C000161700B03A9884E564
:200640003A70C4153AD8841536028018040C001106010000C4150011CC3F00211C20002101
:2006600004E03F211500C0D8006D000004FFBFB51700C0D806F03F001E070015170080AD43
:20068000040140AD070000B126030020440080B5006D000006FB3F003A88058806C53F00E8
:2006A000170AC0DF170900DF1708C0DD170780DD170640DD170500DD1704C0DC170380DCE4
:2006C000170240DC170100DC040EC0DE3A2800F804FDFFDE150100DC050000D93A88212036
:2006E0003402000104AF00213A880BD8440080013A880F001502C0DFC0980200C4FFFF00E2
:200700002601C0103A8805801702C0DF170100DC0403C0DE3A2800F804FEFFDE150000DC20
:200720001501C0DF3A88212040CD02003402000104AF00213A880B803A880D103A880F00EA
:200740001701C0DF170000DC0402C0DEC198020004FFFFDE1500C0DF80B102004400800065
:200760003A7001101700C0DF0401C0DE3A2800F804FEFFDE150000DC3402000404B10084C8
:20078000340200013A880B80048D00211501C0DF80A2020034020001048200213A880B801F
:2007A0001701C0DF170000DC0402C0DE81A2020004FEFFDE150000DC1501C0DF3A8821203E
:2007C00040CD02003A8807804406C0013AC8091C0E08802003004019C4E7BF29CC3F80312E
:2007E0003602803904F87F29050040194400C01806F63F001701C0DF170000DC0402C0DE61
:200800003A2800F804FEFFDE150000DC1501C0DF3A88212040CD0200C4FF7F013A880F28AB
:200820003A8807000408C00204170002C40B400244020003840B0001C40040030E18801855
:200840003A88CD80070080312618C032C4FFBF1A1E02803A26150032261440323AC85519A2
:200860001E0200532610003106100000260440390E03806A2606003226054032060B0000DE
:2008800026030032260240321E030031060100003A880F183A880B184400C01806E73F00F4
:2008A0004400C0000602000026FA7F393A8807003A888580C7FFBF100417000126020011DA
:2008C000C40B00011E0100113A8807003A8805181701C0DF170000DC0402C0DE3A2800F8C8
:2008E00004FEFFDE150000DC1501C0DF3A88212040CD02003A880710041700013A880500A5
:20090000C40B80010E06C0103A888B800700402926050029260480294400801006F93F002D
:200920001E01C010C4FFBF001701C0DF170000DC0402C0DE3A2800F83A880F004406400241
:20094000040280023A88C52103008010C4E7FF10CC3FC0183603C04804F8BF10CC3FC01050
:2009600006030000CC3FC0101C20C01804E0FF183A88C52903008010C4E73F12CC3F0042F8
:200980003603004A04F8BF10CC3F801006030000CC3F80101C20801004E0BF101E04801891
:2009A0004400C0391EE7BF3A44008000060100003A8805000402C02144064002C402002110
:2009C0000300C038C4E77F19CC3F40293603404904F8FF18CC3F401906030000CC3F4019BF
:2009E0001C20402904E07F290300C030C4E73F1ACC3F00423603004A04F8FF18CC3FC01809
:200A000006030000CC3FC0181C20C01804E0FF181E04C0284400C039440080311EE83F3921
:200A20003A2800F83A8805003A2800F80402002A3A880500840B4002040880023A8887207C
:200A40000300C019CC3FC03A1C20C05A04E0FF5A2605405A0500C0290700C018260300184F
:200A600044008010060100000500802A440040291EF23F2A3A88872007004019840BC000AE
:200A80001E01C02844008010C40040310408C0013A8887200300C018CC3F001A1C20004292
:200AA00004E03F42260300400500C03044008010060100000500C031440080311EF47F31EB
:200AC0003A2800F83A880D200402C0203A880500040800020300C031CC3F403A2603004A26
:200AE0003A8893280500C04944008010440080311EF8FF300302C02104088001260E8039FD
:200B00003A888D28840BC0010500C03144008010C40200210408C00103008019CC3F0032B7
:200B20002603C0413A88912805008041440080104400C0181EF83F193A8885280500001068
:200B40003A2800F83402400104FFFFDE04B140291500C0DF00AA020026120010170AC0102D
:200B6000150CA0D0151620D0048D0019151420D104890019151320D104840019151220D18D
:200B8000048C0019151120D1150FE0D0048B00193402C00004C7C018151020D1151520D050
:200BA000150400181700C0DF0401C0DE3A2800F8170CE0D0440080001E0300181716E0D0A4
:200BC0001E138018060500001714E0D02B00C0188C00C01826F93F183A2800F83402800079
:200BE00004C780101504001034028000151620D0151520D004F080100405C0001500001014
:200C000015FF3F10C4FFFF18041080101EFB3F183A8805003A2800F804FDFFDE150140DC52
:200C2000150000DC1502C0DF3A8823203A88212800BB00001E0200103A8805000611000034
:200C40003A88098C7A9206201710A0D03500C0101711A0D00406C0002D00C0101714A0D075
:200C60002B008010CCFFBF100C01C0101EFB3F180C0480101EF03F10150B20D0150A20D1B5
:200C8000440080001702C0DF170140DC170000DC0403C0DE3A2800F8170BA0D026030010E7
:200CA000170A20D13A880B0081C10000440080003A2800F804FDFFDE150140DC150000DCF4
:200CC0001502C0DF3A8823203A88212800BB00001E0200103A88050006190000170BA0D0EB
:200CE0001E0800103A88098C7A9206201710A0D03500C0101711A0D04404C0002D00C010FC
:200D000006050000170A20D13A880B0080C100001EF43F1006EF3F001714A0D02B008010BD
:200D2000CCFFBF100C01C0101EFB3F180C0480101EE83F10150B20D0150A20D144008000F3
:200D40001702C0DF170140DC170000DC0403C0DE3A2800F83402800004FDFFDE04CC8010C1
:200D600017118010150000DC3A882120170E20D1150140DC1502C0DF3A8889203AD20480CE
:200D80003A8823283A888920170AA0D01E098020170CA0D0CC3F00843A882184170A801049
:200DA0003A88A1802B0080800D00808844008000060300003A880B0040CB00001EF43F100A
:200DC0001702C0DF170140DC170000DC0403C0DE3A2800F804FDFFDE150000DC170EA0D0D1
:200DE0003A8821203AD20820150140DC3402C0001502C0DF3A8823283A88852004CCC018C2
:200E0000260200301711001906010000171200193A880911170AA0D01E098020170CA0D029
:200E2000CC3F00843A882184170A80103A88A1802D00408444008000150BA0D006030000DA
:200E40003A880B0040CB00001EF43F101702C0DF170140DC170000DC0403C0DE3A2800F87B
:200E600004FFFFDE3A8809003A880B001500C0DF40CB00001E0200103A8805000637000007
:200E8000170CE0D1170A8038AF7F80105495EA00CCFFBF101EF8FF10846F8000440040025C
:200EA00044FFBF020401C00284030003847F0002170AC0380401C0183A8887182300C01886
:200EC000CC3F00191C20002104E03F21260640223A70C650CC3FC0181C20C01804E0FF180D
:200EE0002601C01A1E1A0023170AC038840200193A8889202B00402104020019CCFF7F2955
:200F00003A8889202B00002184038019CCFF3F213A888D302B0080310403C018CCFFBF31DA
:200F20003A8887182B00C0183A940C30CCFFFF183AB0C6300E06C0003A940428150DE0D0E1
:200F40003AB00411150EA0D04400800006030000040480101ED63F1206C73F001700C0DF93
:200F60000401C0DE3A2800F804F9FFDE3A880B203A8809001503C0DC1506C0DF150540DD3D
:200F8000150400DD150280DC150140DC150000DC40CB0000170CE0D4170AC098AF7F001923
:200FA00054956A01CCFF3F211E8D4021268D0010230080183402400404CC408C0500808805
:200FC0006300801845008088A300801804020001850080883A880500170AC098C400C0181E
:200FE0003A88871823004019340200043A884714C50040194400801004CC00841EF63F1113
:20100000170A809823030011CC3F0021E302C0103A920820CC3FC0181C20C01804E0FF1899
:201020003AB0C6200D03C0806303C0108503C080AB03C0100D04C0802304C0108504C08003
:20104000A3040011CC3F00216304C0103A920820CC3FC0183AB0C6200D05C0802305C01084
:20106000CC3FC018E30480143A920618CC3F80943AB0A41C8D0580846305C0100506C08046
:20108000AB05C0108D06C0802B06C0100D07C080AB06C0108D07C0803707C0101508C080E8
:2010A000370840151509408523098010050A8080170A809863098010450A8080170A809831
:2010C000A30980100B0500818B06C0800B0400857A9108200B034081151100853A88291D29
:2010E000151200853A88E9A0850A80801513008580DD02003A88051515148080CCFF3F91BE
:20110000830340812602002080DD0200060200003A8809A880E8020084FDC3001602801808
:20112000040380000605000054FBFF00160280180404800006010000040880008510808867
:20114000040100013A880500170AC098C409C0183A888718230040193A884714C50A401982
:20116000440080101EF83F113A880500C4020001170AC098C40AC0183A88871823004019AB
:201180003A884714C50B4019440080101EF83F113A88050004020001170AC098840DC0181F
:2011A0003A888718230040193A884714850E4019440080101EF83F11340240013A880500D1
:2011C00004E140290440C1003A884911150F0020041080101EFCFF104400800006010000C4
:2011E0003A8805001706C0DF170540DD170400DD1703C0DC170280DC170140DC170000DCE9
:201200000407C0DE3A2800F83402800004FBFFDE04CC8010150140DC171140141503C0DC77
:20122000150280DC150000DC1504C0DF3A882720840000043A882510171280902610808893
:20124000170E60D13A88098840CB0000260A0010170CE0D0CC3F80803A888510170AC0186C
:201260003A88C5102F0080102607001044000084CC3F808006F53F004400408C06EE3F008B
:201280003A880500060200001500009C440080001704C0DF1703C0DC170280DC170140DCF1
:2012A000170000DC0405C0DE3A2800F804F5FFDE1505C0DC3402C004150740DD150600DD83
:2012C000150200DC150AC0DF1509C0DD150880DD150480DC150340DC3A88212004CCC09C50
:2012E00044390005040440058303409984FF3F813402C00580E902001714809C04CCC0BD83
:201300003A88A5143A882D90830380B83AC8A3B40E048088170E60D13A8809B040CB0000C6
:201320001E0500103A880980040140D940D500001E130010063400003A880700170C20D1A4
:201340007A910418170A00213A88051123008010CC3F80101E0500153A9122883A88C78840
:201360003A9406183AB0041C062C000026FA3F104400C0181EF17F1D440080B506E23F006F
:201380000B0180D814FEFF000CFEBF101E1EC0103A8809D8802001001E020010C4FFBF00FD
:2013A000061600000F0040D93A8809804400800140DD000026F93F10170000D9C4FF7F011B
:2013C0004400800140DD000026F43F100F0040D93A8809803A880D0040DD000026EF3F10FF
:2013E000170000D9C4FF7F013A880D0040DD000026EA3F1080C90000170080D80B0100DCCF
:201400000CFE3F8406010000C4FFBF00D4FDFF001602001CC4FFFF0026B3FF10170AC0DF08
:201420001709C0DD170880DD170740DD170600DD1705C0DC170480DC170340DC170200DCE4
:20144000040BC0DE3A2800F804FAFFDE150140DC3402400404CC408C0B0500890B034089F2
:20146000150400DD7A9108201503C0DC150280DC150000DC1505C0DF80DD02003A8825101C
:201480003A8821004439C004040400052605808417130089170E60D13A88098140CB00008C
:2014A0001E020010C4FFBF00061100003A880700170CA0D07A910818170A40113A8849213E
:2014C00023000021CC3F00211E04C0243A9104803A88C5103A9404100605000026FB3F2043
:2014E0004400C0181EF23F1D4400008406E73F001705C0DF170400DD1703C0DC170280DC92
:20150000170140DC170000DC0406C0DE3A2800F804FBFFDE150140DC1504C0DF1503C0DC28
:20152000150280DC150000DCCC0780203A882320260200103A880500064A00003A88212875
:201540003A8825303A88273800BB000026F93F101715A0D026F73F10040280803A880780D3
:201560003AC80D8C170C20D13A88CB30170A00213A88092923000021050000194400C0184B
:201580001EF8BF18C40240813A880988170CE0D0170AC0180402C0183A8807192300C018FD
:2015A0000500C01044008010440000211EF77F11170CA0D0170AC010C402C0183A88471C31
:2015C0002300C018C502C080170AC0108403C0183A88471C2B00C0180D03C080170AC01050
:2015E0000404C0183A88471C2B00C0188D03C080170AC0108404C0183A88471C2B00C0189A
:201600000D04C080170AC0108405C0183A88471C2B00C0188D04C080170AC0100406C0185B
:201620003A88471C2B00C0180D05C080170AC0108406C0183A88471C2B00C018170A801004
:201640008D05C080040780103A8845143700801015068080150A8084150BC0840D0C4084BC
:20166000440080001704C0DF1703C0DC170280DC170140DC170000DC0405C0DE3A2800F899
:2016800004EFFFDE150D80DD150C40DD150B00DD150AC0DC150980DC150840DC150700DC5A
:2016A0001510C0DF150F00DF150EC0DD3A882D20150540D93A88233034024005008E000043
:2016C0003A8825103A8829003A8821003A88270004CC40AD0E878004340240013A8809D86C
:2016E000447C402904028001C0B9020034024001C4008001040200D9447E4029C0B902007E
:20170000C4FFFF003A880500840B80013A880F183A8809153A8809B103004021CC3F002953
:201720001C20002104E03F21260880211E02C0193A8889D8060300003AC8C910040200DA59
:201740003A88094105004021060100003A880710440080101EEEBF141E2800800B0500A905
:201760000B0340A93A882F007A91082080DD02003A883910265D00BF171300A9170E60D179
:201780003A8809B940CB0000265800103A8821003A8809803A880B883A880D003A880FB851
:2017A00000510100030080884439C000260BC010260A00103A8809883A880BD8040280D9F7
:2017C00080930000260500108B05008C44000002150A008A2604008006050000040800846B
:2017E000048080001EEABF804400C0BD06E13F003A88A5A4440000950636000084FFFF8095
:201800001506C0D8170600D9830340A93A882F0080E90200171400AF3A883917150400DF70
:20182000830380A80E0580B8170400DA170E60D13A8809BA40CB00001E0500103A88098056
:20184000040340D940D500001E180010062700003A8839003A8809E03A880B883A880D8096
:201860003A880FB800510100030080884439C0002609C010260800103A8809883A880BD810
:20188000040280D980930000260300108B05808826040014060C0000040800E7048000023C
:2018A0001EEC3FE24400C0BD06DD3F000B0380D814FEFF000CFEBF10260CC010D4FDFF00F8
:2018C0001601001C26CF3F143A88A5A4440000953A8821103A8809B5008E00003A882510B1
:2018E0000E7C3F104400C004067A3F003A880500060700001705C0D81500001C1E030080EE
:20190000150A008844008000060100003A8805981710C0DF170F00DF170EC0DD170D80DDE8
:20192000170C40DD170B00DD170AC0DC170980DC170840DC170700DC0411C0DE3A2800F8ED
:2019400004F2FFDE150540DC3A8823203A880928150DC0DF150940DD150800DD1507C0DCD8
:20196000150680DC3A882728150400DC3A882530150C00DF150BC0DD150A80DD008E00000C
:20198000340240013A8809D8447C4029040280013A882910C0B9020034024001040200D9B1
:2019A000447E4029C4008001C0B902003A88099840CD02003A882B103A8821000E060005D1
:2019C0003A882185440000843A88099C008E00003A88291006F93F003A880580C4FFFF00A0
:2019E000840B80010E1240853A88099C03004021CC3F00291C20002104E03F212609802182
:201A00000E0300183AC889803A8809D9060300003AC8C980C401C0D93A88093905004021D2
:201A2000060100003A8807804400008406ED3F003402C00404CCC09C260400884439000502
:201A40000480400504FEBF05063B00000B0500990B0340993A8821007A910820443940054E
:201A60000480800580DD02003A8829102640008517130099170E60D13A88098140CB0000A8
:201A8000263B00103A8823003A8809883A880B903A880D003A880F80005101000300C0907B
:201AA0002608401D260700183A8809903A880BD8040280D9809300002602001044008000E8
:201AC000062C00000408408C1EEFBF8D4400008406E63F00170E60D13A88098740CB0000FD
:201AE000260D00103A882F003A8809B83A880B903A880D883A880F800051010003008090C5
:201B00001E1400150408C0BD1EF77FBD440000848303809816EFBF803A880988040340D987
:201B200040D50000261200100B0340DC14FEBF003A7062B4260E80888303409984FF3F89A7
:201B40003A88210080E902001714009F3A88391706EF3F0026EB3F103A8809903A880BD8C7
:201B6000040280D98093000026E63F1006D33F003A880500170DC0DF170C00DF170BC0DD35
:201B8000170A80DD170940DD170800DD1707C0DC170680DC170540DC170400DC040EC0DE7C
:201BA0003A2800F8CC0780201E55001004FDFFDE150140DC150000DC1502C0DF3A88212813
:201BC0003A88232000BB00001E0200103A880500064600001715A0D026FC3F104400008130
:201BE000040280803A8807803AC8118C170C60D103008021170A40293A920E303A88CD409C
:201C00003A884B31030080193AB08C392D0080298400C018840000211EF4BF18C4024081F4
:201C20003A880788170C20D103008011170A00213A88091925028021440080104400C018CD
:201C40001EF87F11170CA0D0C302C080170A80103A888588E502C010170CA0D00B03C0802E
:201C6000170A80103A888588AD03C010170CA0D08B03C080170A80103A8885882D04C01082
:201C8000170CA0D00B04C080170A80103A888588AD04C010170CA0D08B04C080170A80104E
:201CA0003A888588AD05C010170CA0D00B05C080170A80103A8885882D06C010170CA0D0DA
:201CC0008B05C080170A80103A888588AD06C010170CA0D0170A0011170680803A882389E1
:201CE0003507808844008000150BA0D01702C0DF170140DC170000DC0403C0DE3A2800F86E
:201D00003A8805003A2800F804F9FFDE150500DD3A8829203A8809D81504C0DC150100DC7C
:201D20001506C0DF150380DC150240DC3A8821283A882730802001001E0200103A88050086
:201D4000064B0000170A80981E02001080440100060200008B050099C02A01003A882310F3
:201D600016F63F103A8809A0008E00003A8825000E0580003A88A590440080943A8889A457
:201D8000008E000006FA3F003A8889A43A880B8004028081C0A20000170080D8CCFF3F89CF
:201DA0003AD422888D058080150780803AD125888B058098CC03408C7A912288150D8080EB
:201DC000440080000D0C4084C5020080340240040D0300808D0300800D0400808D0400805F
:201DE0000D050080150600801508008015090080150A0081150B8084150F8080150E808070
:201E000004CC408C1E030020171300893A880991060600008303408984FF3F2180E902002D
:201E2000171400893A8805113A888914170E60D140CB000026C13F100F0C00813A880B8037
:201E400040BA010026BD3F1080C90000170000D9C4FF7F014400800140DD0000170000D907
:201E6000C4FF7F013A880D0040DD00003AC004101706C0DF170500DD1704C0DC170380DC43
:201E8000170240DC170100DC0407C0DE3A2800F804FFFFDE1500C0DF00BB00001E02001097
:201EA0003A880500061D00001712A0D00B008010150E20D0150D20D0CCFFFF101C00E018F1
:201EC0000400E01816F63F180C0083100400C30026F3FF100400C1001E02C0103A88090095
:201EE000060400001EEE3F1000E6000026EC3F10170E20D180F600004400C0001E07C010B1
:201F00003402C00004CCC01883104019040400011EE33F298B05C018150DE0D01700C0DFD5
:201F20000401C0DE3A2800F804FFFFDE1500C0DF00BB0000260A00101716A0D01E06001044
:201F400000E901001515A0D01516A0D03402800004C78010150400101715A0D00603000083
:201F6000151620D0151520D03A8805001700C0DF0401C0DE3A2800F804E4FFDE151740DDA4
:201F8000151BC0DF151A00DF1519C0DD151880DD151600DD1515C0DC151480DC151340DC78
:201FA000151200DC3A882B2000BB0000266C00101715A0D0266A00103402400404C7408C67
:201FC00017048088266800101701808C3402000504CC00A50F03008C1E2500900B0500A14A
:201FE0000B0340A1440000847A910820C403C0054439000780DD02001702808C3A882D1064
:202000000E058095171300A1170E60D13A88099140CB00001E020010C4FFFF04064E0000C6
:202020007A912680160F00BC3A8809983A880BD83A880D003A880F90005101002606001048
:20204000030080D826040010260300170D03008C1502808C06290000440000840408C09C8D
:2020600006F03F00440080943A88210006E43F00440000848400C0044439C005830340A10E
:2020800084FF3F9180E90200171400A71702808D3A88391706020000440080B53A88210014
:2020A000830380A00E1A80B0170E60D13A8809B740CB0000261600107A911080C403800011
:2020C00016F53F143A8809403A880BD83A880D903A880FB0151100DA00510100171100DABE
:2020E000260E0010030080D8260C0010260BC0151501808C0D03008C1502808D3A8809D874
:202100003A880BA840AC00003A88050006170000830380A0160E80B00603000044000084AF
:202120000408004206E53F003A880990041040D940D50000260500100B1080DC14FEBF0007
:202140000CFEBF941E02809015040088C4FFFF04D4FDBF000EC9BF143A88059806030000E9
:202160008400800006010000C4008000171BC0DF171A00DF1719C0DD171880DD171740DD8B
:20218000171600DD1715C0DC171480DC171340DC171200DC041CC0DE3A2800F804ECFFDEB6
:2021A000151200DC151100D91513C0DF3A88212800BB0000171100D9261500101715A0D0A8
:2021C00026130010041040D93A880DD800680100260D00101710C0D83402800004C7801066
:2021E0001500C0101501C010C4FFFF000D03C0103A8809804400C0001504C0101502001013
:2022000080F70100060300004400800006010000840080001713C0DF171200DC0414C0DEEA
:202220003A2800F804E7FFDE151780DD151240DC1518C0DF151640DD151500DD1514C0DCD0
:20224000151380DC151100DC3A8823203A882D2800BB0000265300101715A0D02651001075
:202260003A880988151000D8007B00003A880988408000001E020010C4FF3F0506470000FC
:202280003A880988041040D93A880DD800680100264400103402C0003A882B0004E1C01894
:2022A00004058000BA9120A83402C00404E1C09C3A88E580170F00911E070020171000D924
:2022C0003A880B883A880D903A8829A8009401001E04001006250000440040AD1EF1BFA81E
:2022E00006E53F001E2F00B03A88059C8B05C010040A8081040BC08144004001040C00827E
:202300001507C0101508001015090010150F4011150E0010040FC0983A8809003A888D99B0
:202320003A88CF993A88219A04058000260B00A91700001A1E0940411700403217FB3F1AC6
:202340001E06004A1700403A17FC3F1A1E03004A0F0040820FFD3F1A260F004A440000218D
:202360000410C0181EF1BF20060C000026C23FB03A8809883A880B903A880DD880D00100F2
:2023800026BD3F103A88079C44008000150F8018150E80180601000084FF3F053A8805A036
:2023A00006010000C4FFBF001718C0DF171780DD171640DD171500DD1714C0DC171380DC9B
:2023C000171240DC171100DC0419C0DE3A2800F8CCFFBF20C404C000360B8018CCFF3F2169
:2023E0001C00202104002021BA9108203402800004E180103A880711170FC0182602001885
:202400003A880911C50240213A2800F8CCFFBF20C404C000360C8018CCFF3F211C002021CA
:2024200004002021BA9108203402800004E180103A880711170FC018260300183A880911C4
:20244000C30280203A2800F8C4FFBF003A2800F8CCFFBF20C404C00036558018CCFF3F2161
:202460001C00202104F4FFDE04002021150200DCBA912020150480DC3402800404E180943F
:202480003A880594170F8010150BC0DF150A00DF1509C0DD150880DD150740DD150600DD08
:2024A0001505C0DC150340DC264300103A88059417098015170680102E3F80B0040740858F
:2024C0003402C00504CCC0BD3A886B950408C0841700C0A83A88E794830300BF1700009DED
:2024E000171480B83A8809E084FF7F193A88A3A01501C0D880E902003A8889881701C0D812
:20250000261800B0CC7F80B51E1600B0C4FF3FE71E1100A73A8809183A880BD840D500000D
:20252000262100100B0000D914FEBF000CFEFF2026218018830340B9CCFF3F21150000A91F
:202540001500009884FF3F2180E90200171400B93A88091106030000440000A51500009D1C
:2025600044000021170E60D1170AA0D03A8847211E0BC010040900843A8825941700C09079
:20258000170F20D1CC7F80183A888520230080104400C0181500C090CC3F801006070000FE
:2025A00040CB00001EF33F1084FFBF0006030000C4FFBF003A2800F8C4FFBF00170BC0DF46
:2025C000170A00DF1709C0DD170880DD170740DD170600DD1705C0DC170480DC170340DC28
:2025E000170200DC040CC0DE3A2800F804F0FFDE150FC0DF150E00DF150DC0DD150C80DD0B
:20260000150B40DD150A00DD1509C0DC150880DC150740DC150600DC150140D9CCFFBF2046
:20262000C404C0002E0280183A88050006920000CCFF3F211C00202104002021BA91202093
:202640003402800404E180943A880594170F801026F53F10040740853402000704CC00E788
:202660003A886B9504080085170000AA830380E53A8829951700C0A0171440E484FF7F41D2
:202680003A8809B03A88631C1505C0D8150400DA80E902003A88A3883A8805941709801175
:2026A0000B03C0E13A882FE03A8809303A880B38150280D91503C0D900E902003A88271095
:2026C0003A88059417068010170280D91705C0D81703C0D9170400DA2E1980302644003093
:2026E000CCFFBF981C00A0100400A0101E400010C4FFBFB51E0E801D3A8809403A880BD81A
:2027000040D50000265C00100B0000D9D4FDBF0036370011830340E1150000A9150000A006
:2027200084FF3F2180E90200171440E4062F00004400C0181500C0A04400408C062C0000F4
:20274000262B0030CCFFBF981C00A0100400A0101E270010C4FFBFB51E17801D3A8809D855
:202760008020010026440010170000A90F0040D94400800140DD0000170000D9C4FF7F0141
:202780004400800140DD0000170000A90F0040D93A880D0040DD0000170000D9C4FF7F0150
:2027A0003A880D0040DD0000170080D8150000A0150080A8060400003A8809303A880B38C2
:2027C00080E80200150080A03A88059417084014171480B8830300B93A88A3883A880594A2
:2027E0001707401184FF7F2980E902003A88A388170E60D1170AE0D03A8845891E18801862
:20280000170FA0D0CCFFFF9C1C00E09C0400E09C3A88E714170180D825008098040980802D
:202820003A8885901700C010440040014400C0181500C010040680803A88A590170080902C
:20284000360B80183402000104E10021440080103A88212415008090150E40810604000074
:202860003A88098840CB00001EE53F10066E3F00150B60D144008000170FC0DF170E00DF17
:20288000170DC0DD170C80DD170B40DD170A00DD1709C0DC170880DC170740DC170600DC50
:2028A0000410C0DE3A2800F804FCFFDE150000DC1503C0DF150280DC150140DC3A882120DF
:2028C00000BB0000262A00101715A0D026280010CCFF3F811C00202104002021BA9120202B
:2028E0003402400404E1408C3A88058C170F8010261F00103A88058C170E801026180010F9
:202900003A88058C170A401134028001170B001104CC80311E0300281713C0303A88C92079
:20292000060600001714C03084FF7F293A88E5208303003180E902003A888990170E60D12B
:2029400040CB0000260600103A88058C0F0C00113A880B1040BA01002601001080C9000059
:202960003A88218C150F008044008000060100003A8805001703C0DF170280DC170140DC50
:20298000170000DC0404C0DE3A2800F804FDFFDE150140DC150000DC1502C0DF3A88233078
:2029A0000C00D0393A882130170080203702C0100C10C018260500184400C028070040295C
:2029C00035014011C4FF3F843A880B181E0200381EF53F80060B0000260A00803402800064
:2029E00004B5801017008010260200103AE83E10060200003402800004C68010C402C000A1
:202A00001500C0103AC8058C1702C0DF170140DC170000DC0403C0DE3A2800F83A2800F806
:202A20003A8805303A2800F826020020170280201E1300103402800004B58010170080105D
:202A40002609001004FFFFDE1500C0DF3AE83E108405C0001500C01084FABF001700C0DF12
:202A60000401C0DE3A2800F83402800004C680108405C0001500C01084FABF003A2800F884
:202A80001700802815014021150080201700802815010011150000293A8805003A2800F806
:202AA00004FBFFDE1503C0DC150280DC150140DC150000DC1504C0DF3A8827203A88232822
:202AC0001700002C40CD02004400801426074084170200813A880B983A880D9000B20200C9
:202AE000260400101700008406F83F003A880500060100003A8805801704C0DF1703C0DC3F
:202B0000170280DC170140DC170000DC0405C0DE3A2800F83A2800F8FA7001003A2800F8F9
:202B2000C400C0012E1980393AB044213A70C411260F0010030080200300C0281E15C0106C
:202B400084FFBF31C4FFFF0106040000030080200300C028C4FFBF311E0EC0104400002193
:202B6000440040291EF9FF313A8805003A2800F81700C020170080281E04801804FFBF31DD
:202B8000040100210401402936F9BF391EE93F3006F53F003AC8C5103A2800F804FFFFDEB9
:202BA000150000DCC403C0003A8805202E4380193AB04621CC00C0181E42001804FC3F34CC
:202BC0003AD120800401C028040140233A911E800402002B0402C0220405C07B0403802A7E
:202BE000040340223A88DF2B3A8811283A880F20170000410404C0390404C01815FC3F39F2
:202C000017FCBF1B0404406B0404C05A15FCBF6B170080630404404A0404004215FCBF5BB6
:202C200017008053040400630404805215FCBF4B1EEFFF1B4400C0813A910E38CC0300318D
:202C4000C400C0023A88C7113A88CB292E1F00593A8813183A8811283A880F201700804246
:202C60000401404A04FFFF3915FFBF4A0401004236FAFF5904FF3F21BAD00820CC0080310C
:202C8000440000213A8809213A8809213A8807193A880B29260600303A888D190300C0296F
:202CA0004400C01844004029C5FFFF191EFBBF19170000DC0401C0DE3A2800F83A880720A5
:202CC00006F43F003A88072006F33F003A880D2006F03F00CC00802026200010070080200D
:202CE000262000103A880520060200000700C0102618001844008010CC00C0101EFB3F1882
:202D00001700C010F4BFFF01C4BFFF393A30CA007420A0013A88C7190420A0313A70461955
:202D20003A7086191E090018040180101700C0103A88CB193A30C6003A70C6283A708619D8
:202D400026F93F1806010000440080100700C0101EFD3F183AC805113A2800F83A88052080
:202D600006E73F003A8805003A2800F82E18002916170028040880004400C00006020000AA
:202D800026110010160500283A884B29C4FFBF103A88C71836FA3F29260B00183A88050098
:202DA000360240213AC849213AB0C4107AD006187AD00A281EFA3F181E0100303A2800F854
:202DC0003A8805203A2800F83A88050006FA3F004400C00006F13F0004FEFFDE1501C0DFDE
:202DE000150000DC160B00203A882100160C00283A880D00C0D602003AC807043AF084183A
:202E00003A8805141701C0DF170000DC0402C0DE3A2800F83AC80901440000040EF43F2872
:202E20003AC84B015C00008406F13F0004FDFFDE1502C0DF150140DC150000DC160C002035
:202E40003A8823003A882100160D002844008001C0D602003AF004143A8885881702C0DF39
:202E6000170140DC170000DC0403C0DE3A2800F83AC8090144004004C4FF3F040EF33F282A
:202E80003AC84B0106F13F003A880D00C1D6020044008001C1D602003A88050026070020D4
:202EA0004C00C0207AD00820260100183A8845113A884B291EFA3F203A2800F83A2800F8BC
:202EC0004141414141414141414141414141414141414141414141414141414141414141D2
:202EE0004141414141414141414141414141414141414141414141414141414141414141B2
:202F00004141414141414141410A0D002F6465762F416C746572615F55505F53445F43615E
:202F200072645F4176616C6F6E5F496E746572666163655F30000000426F6F746C6F616448
:202F4000657220636F70696564212044756D70203A0A0D00256320000A0D000044756D7069
:202F600020646F6E650A0D0057616974696E6720666F72204D4F44452072656769737465E2
:202F80007220746F206265207365742E2E2E0A0D000000002E0000004D6F646520736574A9
:202FA00020746F2025780A0D000000004F6374657420302C2076616C75652025780A0D00AE
:202FC00048656164657220302D3320636F70792073746172740A0D004865616465722063EC
:202FE0006F706965640A0D00486561646572203420636F70792073746172740A0D000000CC
:2030000053797361726561207374756220636F706965640A0D0000004F6374657420312CD3
:203020002076616C75652025780A0D004F6374657420322C2076616C75652025780A0D00F1
:20304000554E4B4E4F574E204D4F44452025780A0D0000008000000077617363612073798C
:2030600073202001BEB6DEBBC0B0DD2CBCDB0000000000000E747FFC7FFD7FFE7FFF00000B
:2030800000000000000000000000000000000000000000004261636B557052616D20466F05
:2030A000726D61742F6465762F617564696F5F300020202020202020202020202F64657650
:2030C0002F6E756C6C00000000000000000000004C000800000000000000000000000000B2
:2030E00000000000000000000000000000000000007004000000000000000000E40108006F
:2031000000000000000000000000000000000000000000000000000000000000006004004B
:203120000000000094020800000000000000000094020800000000000000000094020800B5
:203140000000000000000000000000000000000000000000C4020800C4020800FC010800CE
:20316000000000000000000000000000202A00000000000000000000000000000000040001
:20318000FFFFFFFF9402080094020800CC020800CC0208000000000000000000000000004B
:2031A00000000000000000000000000000000000000000000000000000000000000000000F
:2031C0000000000000000000000000000000000000000000000000000000000000000000EF
:2031E0000000000000000000000000000000000000000000000000000000000000000000CF
:203200000000000000000000000000000000000000000000000000000000000000000000AE
:020000022000DC
:00000001FF
